{"abi":[{"type":"constructor","inputs":[{"name":"_eduToken","type":"address","internalType":"address"}],"stateMutability":"nonpayable"},{"type":"function","name":"donationPercentage","inputs":[],"outputs":[{"name":"","type":"uint256","internalType":"uint256"}],"stateMutability":"view"},{"type":"function","name":"eduToken","inputs":[],"outputs":[{"name":"","type":"address","internalType":"contract ERC20"}],"stateMutability":"view"},{"type":"function","name":"getPurchaseInfo","inputs":[{"name":"user","type":"address","internalType":"address"}],"outputs":[{"name":"","type":"tuple","internalType":"struct MyEcoStepsWaterFp.Purchase","components":[{"name":"user","type":"address","internalType":"address"},{"name":"amount","type":"uint256","internalType":"uint256"},{"name":"organization","type":"address","internalType":"address"},{"name":"timestamp","type":"uint256","internalType":"uint256"}]}],"stateMutability":"view"},{"type":"function","name":"owner","inputs":[],"outputs":[{"name":"","type":"address","internalType":"address"}],"stateMutability":"view"},{"type":"function","name":"purchase","inputs":[{"name":"amount","type":"uint256","internalType":"uint256"},{"name":"organization","type":"address","internalType":"address"}],"outputs":[],"stateMutability":"nonpayable"},{"type":"function","name":"purchases","inputs":[{"name":"","type":"address","internalType":"address"}],"outputs":[{"name":"user","type":"address","internalType":"address"},{"name":"amount","type":"uint256","internalType":"uint256"},{"name":"organization","type":"address","internalType":"address"},{"name":"timestamp","type":"uint256","internalType":"uint256"}],"stateMutability":"view"},{"type":"function","name":"waterOrg1","inputs":[],"outputs":[{"name":"","type":"address","internalType":"address"}],"stateMutability":"view"},{"type":"function","name":"waterOrg2","inputs":[],"outputs":[{"name":"","type":"address","internalType":"address"}],"stateMutability":"view"},{"type":"function","name":"waterOrg3","inputs":[],"outputs":[{"name":"","type":"address","internalType":"address"}],"stateMutability":"view"},{"type":"event","name":"DonationSent","inputs":[{"name":"organization","type":"address","indexed":true,"internalType":"address"},{"name":"amount","type":"uint256","indexed":false,"internalType":"uint256"}],"anonymous":false},{"type":"event","name":"PurchaseRecorded","inputs":[{"name":"user","type":"address","indexed":true,"internalType":"address"},{"name":"amount","type":"uint256","indexed":false,"internalType":"uint256"},{"name":"organization","type":"address","indexed":false,"internalType":"address"},{"name":"timestamp","type":"uint256","indexed":false,"internalType":"uint256"}],"anonymous":false}],"bytecode":{"object":"0x6080604052600280546001600160a01b031990811673d8ce04a50ec0bf9eaf07507b1e4eaff892b10dc11790915560038054821673ceb5e25083d38ed1b2791ccc8192f0f3f051275a17905560048054909116733aa497610c81d5fd4542624ea814e2c37bacc387179055601460055534801561007b57600080fd5b506040516107ec3803806107ec83398101604081905261009a916100cd565b60018054336001600160a01b031991821617909155600680549091166001600160a01b03929092169190911790556100fd565b6000602082840312156100df57600080fd5b81516001600160a01b03811681146100f657600080fd5b9392505050565b6106e08061010c6000396000f3fe608060405234801561001057600080fd5b50600436106100935760003560e01c8063ae77c23711610066578063ae77c23714610166578063b955507a1461017b578063c16cc8101461018e578063c416ec7f146101a5578063eb5d1c39146101b857600080fd5b806354f8400e14610098578063842a77d3146100c85780638d878889146101405780638da5cb5b14610153575b600080fd5b6004546100ab906001600160a01b031681565b6040516001600160a01b0390911681526020015b60405180910390f35b61010b6100d63660046105bf565b60006020819052908152604090208054600182015460028301546003909301546001600160a01b039283169391929091169084565b6040516100bf94939291906001600160a01b039485168152602081019390935292166040820152606081019190915260800190565b6006546100ab906001600160a01b031681565b6001546100ab906001600160a01b031681565b6101796101743660046105e1565b610209565b005b6003546100ab906001600160a01b031681565b61019760055481565b6040519081526020016100bf565b6002546100ab906001600160a01b031681565b6101cb6101c63660046105bf565b6104b9565b6040805182516001600160a01b03908116825260208085015190830152838301511691810191909152606091820151918101919091526080016100bf565b6002546001600160a01b038281169116148061023257506003546001600160a01b038281169116145b8061024a57506004546001600160a01b038281169116145b61029b5760405162461bcd60e51b815260206004820152601c60248201527f496e76616c6964206f7267616e697a6174696f6e20616464726573730000000060448201526064015b60405180910390fd5b60006064600554846102ad9190610623565b6102b79190610640565b905060006102c58285610662565b6006546040516323b872dd60e01b8152336004820152306024820152604481018790529192506001600160a01b0316906323b872dd906064016020604051808303816000875af115801561031d573d6000803e3d6000fd5b505050506040513d601f19601f820116820180604052508101906103419190610675565b5060065460405163a9059cbb60e01b81526001600160a01b038581166004830152602482018590529091169063a9059cbb906044016020604051808303816000875af1158015610395573d6000803e3d6000fd5b505050506040513d601f19601f820116820180604052508101906103b99190610675565b50604080516080810182523380825260208083018581526001600160a01b0388811685870181815242606080890182815260008981528089528b902099518a549087166001600160a01b0319918216178b55965160018b0155925160028a018054919096169616959095179093555160039096019590955585518781529283019490945293810192909252917f354b29cccdde5e4d6747fb9a73b36aab413b5b9a597f82c43cb3a0cc192d0e02910160405180910390a2826001600160a01b03167f67a9bd2734eac78f1ac30823ea3d8e3c8b2be225836b3a4917ed0c15508f40aa836040516104ab91815260200190565b60405180910390a250505050565b6040805160808101825260008082526020808301829052828401829052606083018290526001600160a01b03851682528190529190912060030154610502906301e13380610697565b42106105505760405162461bcd60e51b815260206004820181905260248201527f507572636861736520696e666f726d6174696f6e2068617320657870697265646044820152606401610292565b506001600160a01b03908116600090815260208181526040918290208251608081018452815485168152600182015492810192909252600281015490931691810191909152600390910154606082015290565b80356001600160a01b03811681146105ba57600080fd5b919050565b6000602082840312156105d157600080fd5b6105da826105a3565b9392505050565b600080604083850312156105f457600080fd5b82359150610604602084016105a3565b90509250929050565b634e487b7160e01b600052601160045260246000fd5b808202811582820484141761063a5761063a61060d565b92915050565b60008261065d57634e487b7160e01b600052601260045260246000fd5b500490565b8181038181111561063a5761063a61060d565b60006020828403121561068757600080fd5b815180151581146105da57600080fd5b8082018082111561063a5761063a61060d56fea2646970667358221220d4798ad91a9b7cd65412a2d6d2e4a10804914848465deecb9e732b9ea8b8455e64736f6c634300081a0033","linkReferences":{}},"methodIdentifiers":{"donationPercentage()":"c16cc810","eduToken()":"8d878889","getPurchaseInfo(address)":"eb5d1c39","owner()":"8da5cb5b","purchase(uint256,address)":"ae77c237","purchases(address)":"842a77d3","waterOrg1()":"c416ec7f","waterOrg2()":"b955507a","waterOrg3()":"54f8400e"},"id":5}